:020000040800F2
:10000000E006002061020008F11300086D120008EC
:10001000ED13000859040008BD140008000000009A
:10002000000000000000000000000000F9130008BC
:100030005D04000800000000F5130008FD1300082F
:100040007B0200087B0200087B0200087B0200089C
:100050007B0200087B0200087B0200087B0200088C
:100060007B0200087B0200087B0200087B0200087C
:100070007B0200087B0200087B0200087B0200086C
:100080007B0200087B0200087B02000800000000E1
:100090000000000000000000000000007B020008DB
:1000A0007B0200087B0200087B0200087B0200083C
:1000B0007B0200087B0200087B0200087B0200082C
:1000C0007B0200087B0200087B0200087B0200081C
:1000D0007B0200087B0200087B0200080000000091
:1000E0007B0200087B0200087B0200080000000081
:1000F0000000000000000000000000007B0200087B
:10010000000000007B0200087B0200087B02000860
:1001100000000000000000000000000000000000DF
:100120007B0200087B0200087B0200087B020008BB
:100130007B0200080000000000000000000000003A
:100140000000000000000000000000007B0200082A
:100150007B0200087B0200087B0200087B0200088B
:100160007B0200087B020008000000000000000085
:10017000000000000000000000000000000000007F
:10018000000000007B0200080000000000000000EA
:100190007B02000800F002F800F052F814A696E87E
:1001A000000CB244B344DA4501D100F049F8BAE892
:1001B0000F000FA696E83000A5EB040504EB060738
:1001C000AAEB0704A7F101074FEA15154FEA34140B
:1001D000A4F10104AC4201D300F032F813F0010F96
:1001E00018BFFB1A43F0010300F001F8DBE71847E2
:1001F0004C1400006C140000103A24BF78C878C179
:10020000FAD8520724BF30C830C144BF04680C601C
:1002100070470000704700000023002400250026DE
:10022000103A28BF78C1FBD8520728BF30C148BF59
:100230000B6070471FB501F0E3F91FBD10B510BD8D
:1002400000F0D0F81146FFF7F5FF01F039F900F0A2
:10025000EEF803B4FFF7F2FF03BC00F0F5F800007E
:100260000948804709480047FEE7FEE7FEE7FEE74A
:10027000FEE7FEE7FEE7FEE7FEE7FEE70448054986
:10028000054A064B70470000A914000895010008B4
:10029000E0000020E0060020E0020020E002002054
:1002A00053EA020C00F069802DE9F04B4FF0000694
:1002B000002B1FBFB3FA83F503FA05F424FA05F601
:1002C0005E4012BF1643B2FA82F502FA05F4C5F198
:1002D00020051EBF22FA05FC44EA0C04203556EA2C
:1002E000044C4FEA144418BF641C4FF000084FF050
:1002F0000009904271EB030C39D3002919BFB1FA00
:1003000081F701FA07F6B0FA80F700FA07F6C7F1AD
:1003100020071EBF20FA07FC46EA0C062037B6FB72
:10032000F4FCA7EB0507103F07F01F0BCBF12006ED
:100330002CFA06F60CFA0BFB44BFB3460026202F1E
:10034000A4BF5E464FF0000B5BEA060C08BF4FF0FF
:10035000010B19EB0B0948EB0608ABFB027C06FB13
:1003600002CC0BFB03CCC01B71EB0C01C1E70B46AD
:10037000024641464846BDE8F08B13B5084318BF16
:100380004FF0FF300146AFF30080BDE81C407047DE
:100390004FF0000200B5134694469646203922BF1E
:1003A000A0E80C50A0E80C50B1F12001BFF4F7AF69
:1003B000090728BFA0E80C5048BF0CC05DF804EB4B
:1003C000890028BF40F8042B08BF704748BF20F8B9
:1003D000022B11F0804F18BF00F8012B70477047B7
:1003E00070477047754600F02BF8AE460500694629
:1003F000534620F00700854618B020B5FFF73EFFB2
:10040000BDE820404FF000064FF000074FF0000815
:100410004FF0000BAC46ACE8C009ACE8C009ACE852
:10042000C009ACE8C00921F007018D46704710B53E
:100430000446AFF300802046BDE81040FFF709BF37
:10044000004870473000002001491820ABBEFEE78D
:100450002600020070470000FEE700007047000021
:1004600072B600BFFEE7000070B581B000220092B6
:1004700090F83C20012A03D1022001B070BD00BFDA
:10048000D1F800E001221FFA8EFC4FEA4C0380F8FD
:100490003C200EEB4E0213FA8EF31024BEF1090F2E
:1004A00088BFA3F11E0288BF0C24036807251E59CC
:1004B000954026EA05051D518D681E5905FA02F280
:1004C00032431A514968062906D801EB81014A1FB7
:1004D000194651F8345F0EE00C2901EB810105D873
:1004E000A1F12302194651F8305F04E0A1F1410265
:1004F000194651F82C5F1F24944025EA04040C602F
:100500000CFA02F20C6842F2043CC4F2010C2243E1
:10051000ACF54174A3420A603ED1BEF1120F07D17F
:10052000DCF8001041F48001CCF8001034E000BF8A
:100530002EF0010110292FD1DCF80010BEF1100FB0
:1005400041F40001CCF8001026D140F22C01C2F297
:10055000000109684DF68362C4F21B32A1FB02124E
:10056000910C01EB8101490000910099A1B1009922
:1005700001390091009979B10099013900910099F0
:1005800051B1009901390091009929B100990139BF
:10059000009100990029EAD1002180F83C10002048
:1005A00001B070BD0068C06C70470000002804BF37
:1005B0000120704710B5016C00293DD0016CC906BF
:1005C00045D4016C41F202129143023142F20432ED
:1005D0000164C4F20102116821F440311160136812
:1005E00090E812102343D0F810E013604A68012409
:1005F00022F480724A604A68C0F6007442EA0E2211
:100600004A604A6822F040724A604A6842EA0C0234
:100610004A608A6822F400628A60C2688B681A4362
:100620008A60826A8B68A24223F070638B608B6859
:1006300010D123F0405216E0044600F065F8204641
:100640000021616484F83C10016CC906B9D5012110
:1006500053E000BF1A438A608A6822F040528A60E1
:10066000C26A8B681A438A608A6822F002028A6032
:100670008A68037E90F8204042EA43028A604A6812
:1006800084B142F400624A604A684EF2000322F4E8
:1006900060424A60426ACFF6FF734C6803EB423215
:1006A000224301E022F400624A60CA6A40F2000C70
:1006B00022F47002CA62C3694269CFF6F07CCC6A48
:1006C0000CEB03532343CB628B6823F400738B60E2
:1006D00090F830308C6844EA43238B608B6823F4B5
:1006E00080638B608B6843EA82228A6000214164C8
:1006F000026C012363F301020264002280F83C20B3
:10070000BDE810400846704780B586B042F200014F
:100710000068C4F20101002288420592CDE903225B
:100720000292019202D006B080BD00BF43F63000B5
:100730000092C4F20200436943F480734361436949
:1007400003F480730093009B0092036843F001035D
:100750000360006800F00100009000980120019003
:100760000320CDE9020201F5604001A900F01EF965
:1007700006B080BD70B5044600680D46826852051B
:1007800044BF80685FEAC05038D400F0EBF92168BC
:100790000A68920749D40646681C3CD0DDB908684F
:1007A000800721D5086880073FD4086880071BD5DB
:1007B0000868800739D40868800715D5086880075D
:1007C00033D4086880070FD508688007E7D52CE088
:1007D0000868800729D400F0C5F9801B2168A84269
:1007E000F6D908688007F3D4206C40F00400206438
:1007F000002084F83C00032070BD00BF206C40F056
:1008000020002064002084F83C00012070BD00BF5F
:100810000868800709D40868800706D4086880073C
:100820005CBF08685FEA8070F2D56FF01200086064
:10083000206C40F400702064886810F0405F01D0A4
:10084000002070BD207E0028FAD1C86A10F4700F15
:1008500002D088684005F3D4206C20F480702064B6
:10086000206CC004ECD4206C40F001002064002017
:1008700070BD000010B581B00021009190F83C10CF
:10088000012903D1022001B010BD00BF046801217D
:1008900080F83C10214651F8083FDB0729D10B684E
:1008A0004DF6836243F001030B6040F22C03C2F269
:1008B00000031B68C4F21B32A3FB02239A0C02EB59
:1008C00042020092009AA2B1009A013A0092009A64
:1008D0007AB1009A013A0092009A52B1009A013A14
:1008E0000092009A2AB1009A013A0092009A002AD6
:1008F000EAD10A68036CD2070CD143F010010164FD
:1009000000F1440101200A6810430860002001B092
:1009100010BD00BF40F2017223EA020202F58072AC
:1009200002646268520504D5026C012363F30D3240
:100930000264026C4FF0000C0023D20444BF426CEE
:1009400022F0060342F2000E436480F83CC06FF0D0
:100950002200C4F2010E2060DEF80403C00609D0B4
:1009600074450BD1DEF8080010F0405F06D14FF05F
:100970008040C8E7086810F0405FF8D0002001B060
:1009800010BD0000B0B5044600F0ECF8054640F29A
:100990002400C2F200000078611C18BF044400BFAC
:1009A00000F0E0F8401BA042FAD3B0BD2DE9F04FB3
:1009B00083B000F1200200F13E4741F200050092B1
:1009C00007F1FF77C4F2020507224FEAB726A842D3
:1009D00008BF042200254FF000084FF00009042E44
:1009E00038BF4FEAB72201920AE000BF09F10109BE
:1009F00008F10208B9F1100F05F1040500F0A2801A
:100A00000F68012202FA09FE17EA0E0AEED0D1F8A9
:100A100004C003220CF003077E1E02FA08F4012E24
:100A20006FEA040B12D88468CE6804EA0B0406FA55
:100A300008F634438460446824EA0E06CCF30014BC
:100A400004FA09F42643466004E000BF032F01D1F5
:100A500003271EE0C6688C6806EA0B0604FA08F451
:100A60002643022FC66014D16FF00302009E02EAF3
:100A7000590756F807C005F01C040F220B69A24065
:100A80002CEA0202A3401A43F251D1F804C00CF040
:100A90000307026807FA08F302EA0B021A431CF480
:100AA000403F0260A2D0002243F644030292C4F207
:100AB00002031A6843F6004442F480421A601A683E
:100AC000C4F2010402F480420292029A29F0030265
:100AD0004FF6084C2244CFF6FF7C52F80C3005F05C
:100AE0000C070F26BE40B343019E06FA07F73B43AF
:100AF00042F80C30A2684B6842EA0A0743F60C4CF5
:100B0000DE0258BF22EA0A07A760C4F2010CDCF833
:100B100000209E0242EA0A0758BF22EA0A07CCF8E0
:100B2000007062689E0342EA0A0758BF22EA0A0779
:100B300067602268DB0342EA0A0758BF22EA0A0715
:100B4000276053E703B0BDE8F08F0000006908405C
:100B500018BF012070470000002A08BF0904816106
:100B60007047000040F2DC00C2F2000000687047ED
:100B700040F2240040F2DC01C2F20000C2F20001A7
:100B800000780A68104408607047000080B543F69A
:100B90000040C4F20200016841F400710160016884
:100BA00041F480610160016841F4807101600320BB
:100BB00000F076F8002000F005F800F027F800209B
:100BC00080BD000070B540F22406C2F2000640F27B
:100BD0002C013278C2F200014FF47A730968B3FB3A
:100BE000F2F20446B1FBF2F1084600F029FB0F2CAB
:100BF0004FF0010508D838B94FF0FF3021460022E8
:100C0000002500F021F87460284670BD82B00020F5
:100C100043F640010190C4F202014A6842F4804266
:100C20004A604A6802F480420192019A0090086882
:100C300040F080500860086800F0805000900098F4
:100C4000072002B000F02CB810B54EF60C5CCEF2C6
:100C5000000CDCF80030C3F3022E8EF00704042CE5
:100C600028BF0424BEF103034FF0FF3E0EFA04F444
:100C700038BF0023A14399400EFA03F39A4311436E
:100C800000F00F0200F160430901043A03F56443E8
:100C90006244002848BF02F10C03197010BD000027
:100CA0004EF60C51CEF200010A684FF6FF031A40CF
:100CB00060F30A2242F0806040F0FD7008607047E7
:100CC000002804BF012070472DE9F04143F60808D1
:100CD000C4F202080446D8F8F8030D4600F00700F5
:100CE000814207D988F8F853D8F8F80300F00700D4
:100CF000A84277D12068810717D5410705D5D8F8D4
:100D0000001041F4E051C8F80010010705D5D8F8EB
:100D1000001041F46041C8F80010D8F80010A26833
:100D200021F0F0011143C8F80010C00740D1D8F8F5
:100D3000F80300F00700854207D288F8F853D8F886
:100D4000F80300F00700A8424CD12068410707D5FE
:100D5000D8F80010E26821F4E0511143C8F80010FF
:100D6000000708D5D8F80000216920F4604040EA67
:100D7000C100C8F8000000F055F8D8F8001041F2A2
:100D80001A62C1F30311C0F60002515C40F22C025A
:100D900020FA01F140F22800C2F200000068C2F21D
:100DA00000021160FFF70EFF0020BDE8F08100BFD8
:100DB0006068811E022907D258F8081C89015CBFAF
:100DC0000120BDE8F08111E0012807D158F8081C86
:100DD00089035CBF0120BDE8F08107E058F8081CDA
:100DE000890703D40120BDE8F08100BFD8F80010C6
:100DF00021F003010843C8F80000FFF7B3FE0646E0
:100E000041F28837D8F80000616800F00C00B0EBC0
:100E1000810F8CD0FFF7A6FE801BB842F2D90320C9
:100E2000BDE8F08110B543F60404C4F20204616821
:100E3000C1F3810142F20040C0F2F400DFE801F0AA
:100E400002040A0210BD00BF41F20020C0F27A0085
:100E500010BD00BF216801F03F02216823684902EC
:100E6000C3F3881106D4A1FB00010023FFF718FA91
:100E700007E000BF41F20020C0F27A004843B0FB17
:100E8000F2F021680222C1F3014102EB4101B0FB03
:100E9000F1F010BD002804BF012070472DE9F0419A
:100EA00082B00446007843F60006C007C4F202068A
:100EB0000CD0B06800F00C00042840F0818030684D
:100EC000800303D56068002800F0688120788007DF
:100ED0001BD5B06810F00C0F09D0B06800F00C0002
:100EE000082840F087807068400200F183803068F5
:100EF000800703D5E068012840F0508130682169FF
:100F000020F0F80040EAC10030602078000713D4D8
:100F1000207840072AD4A569002D00F03A81B068F6
:100F200000F00C00082840F0A580012D40F00E8153
:100F3000012002B0BDE8F0816069002800F08280E5
:100F40000020C4F247200121C0F8801EFFF70AFEEE
:100F5000054600BF706F8007DAD4FFF703FE401B21
:100F60000228F7D9032002B0BDE8F081306C5FEAB7
:100F7000C0080AD400200190306C40F080503064EA
:100F8000306C00F080500190019847F20007C4F2E5
:100F900000073868C00547D4386840F4807038606E
:100FA000FFF7E0FD054600BF3868C0053CD4FFF7F9
:100FB000D9FD401B0228F7D9032002B0BDE8F0811B
:100FC000B06800F00C00082803D1706840023FF5BB
:100FD00076AF61683068B1F5803F07D0B1F5A02FDA
:100FE00040F09A8040F480203060306840F48030D7
:100FF00030609AE0E068002840F20000C4F2472028
:101000005CD001210160FFF7ADFD05463068800727
:101010003FF574AFFFF7A6FD401B0228F6D9032069
:1010200002B0BDE8F08100BFA168306F012905D092
:10103000052955D140F004003067306F40F00100C1
:10104000306756E00020C4F247200021C0F8801E1F
:10105000FFF788FD054600BF706F80077FF558AF2A
:10106000FFF780FD401B0228F6D9032002B0BDE83F
:10107000F08100BF0027C4F2472700203866FFF741
:1010800071FD022D05460DD13068800140F18A8046
:10109000FFF768FD401B02284FF00300F4D902B0AF
:1010A000BDE8F0813068800173D5FFF75BFD401B20
:1010B00002284FF00300F5D9F1E700BF00210160DD
:1010C000FFF750FD054600BF306880077FF51DAF74
:1010D000FFF748FD401B02284FF00300F4D9DEE77C
:1010E00020F001003067306F002920F004003067E5
:1010F0007AD0FFF737FD054641F28837306F800719
:1011000000F18480FFF72EFD401BB842F6D9032082
:1011100002B0BDE8F08100BF20F48030306030685C
:10112000002920F4802030607AD0FFF71BFD0546AF
:10113000306880033FF5CAAEFFF714FD401B6428FA
:10114000F6D9032002B0BDE8F08100BF7068E16904
:1011500000F480028A4221D1216A00F03F028A42D3
:101160001CD147F6C071626A0140B1EB821F15D1F4
:10117000A16A4FF6FF73C903994300F44032A1F509
:1011800080318A420AD1E16A00F07060B0EB016FF1
:1011900004D1002002B0BDE8F08100BF012002B000
:1011A000BDE8F08104F11C052FCD084340EA821010
:1011B000D9034FF6FF729143A1F5803140EA0560F3
:1011C0000843706001203866FFF7CCFC044600BF7E
:1011D00030688001DDD4FFF7C5FC001B02284FF00A
:1011E0000300F5D95BE700BFFFF7BCFC054641F201
:1011F000883700BF306F800708D5FFF7B3FC401B6E
:10120000B8424FF00300F5D949E700BFB8F1000F2D
:101210003FF581AE306C20F0805030647BE600BF3B
:10122000FFF7A0FC054600BF306880037FF54EAE97
:10123000FFF798FC401B64284FF00300F4D92EE719
:10124000411E0020B0EB116F1CBF012070474EF211
:101250001002CEF2000251604EF62351CEF2000190
:10126000F0230B700721906011607047FEE70000CB
:10127000B0B584B040F2940042F200010123002492
:10128000C2F20000C4F20101C0F60073012503940C
:101290004FF48032047680F82040C0E90A34C561FA
:1012A00080F8304080E81600C0E903444561FFF74C
:1012B0007DF9002818BFFFF7D3F80420029040F210
:1012C0009400C2F200006946CDE90045FFF7CCF872
:1012D000002818BFFFF7C4F804B0B0BD2DE9F04FE7
:1012E00087B0002443F630000694CDE90444CDE9EC
:1012F00002440194C4F202000168002641F0040196
:1013000001600168C4F2020601F004010191019933
:1013100001940168002241F080010160016801F040
:101320008001019101990194016841F0010101607E
:10133000016801F00101019101990194016841F0F6
:101340000201016000684FF4E46100F002000190C6
:1013500001983046FFF700FC06F5806840464FF4E0
:10136000876100224FF4876AFFF7F6FB06F50065F8
:101370002846802100224FF0800BFFF7EDFB4FF451
:10138000005002AFCDE902044FF00109284639466A
:10139000CDF81090FFF70AFB0C2002900220CDE957
:1013A000030407200690304639460594FFF7FEFAFD
:1013B0004FF4E460CDE9020930463946CDE90444F2
:1013C000FFF7F4FA40463946CDE902A9CDE90444D5
:1013D000FFF7ECFA28463946CDE902B9CDE90444D5
:1013E000FFF7E4FA07B0BDE8F08F0000FEE7000069
:1013F000FEE700007047000070470000FFF7B8BB31
:1014000070B592B006AC20463021FEF7C1FF002532
:1014100043F640000595CDE90355CDE9015500950A
:10142000C4F202000168022641F0805101600068A8
:1014300000F080500090009847F200000095C4F240
:101440000000016866F38F310160006800F44040DD
:1014500000900098012006904FF4803007904FF4E0
:1014600080000D9004200E905420CDE90F06072037
:10147000119020460C96FFF70DFD18B172B600BF13
:10148000FEE700BF0F20CDE901064FF48050CDE903
:10149000040501A802210395FFF712FC10B172B6F2
:1014A000FEE700BF12B070BD4EF68850CEF20000CD
:1014B000016841F47001016070470000FEE7000020
:1014C00040F60004C4F20204FFF760FBFFF798FF48
:1014D000FFF704FFFFF7CCFE40F2000B40F290074D
:1014E00040F2940540F20118C2F2000BC2F200076C
:1014F000C2F20005C0F210084FF0320A62E000BFED
:10150000012804BF01208BF800005E4656F8040F46
:1015100097F800904FF480610022FFF71DFB706880
:1015200008210022FFF718FBB06820210022FFF7F6
:1015300013FBF06810210022FFF70EFB30694FF417
:1015400080610022FFF708FB70694FF48071002270
:10155000FFF702FBB0694FF400710022FFF7FCFABD
:10156000F06980210022FFF7F7FA41F22A61C0F604
:10157000000156F8290031F819100122FFF7ECFAA2
:101580002846FFF777F928464FF0FF31FFF7F2F8CA
:101590002846FFF707F84FF4E1714843A0FB081213
:1015A000801A02EB50000AEBD020FFF7EBF97878B5
:1015B000397800284FF0070008BF0120084400F0E8
:1015C0000700387020464FF40051FFF7BFFA00289B
:1015D00096D19BF80010012992D11420FFF7D2F97F
:1015E00020464FF40051FFF7B1FA00288DD17878EA
:1015F0000021B0FA80F040098BF80010787084E781
:10160000F1EE100A4FF6FF71C0F2C03120EA01007E
:1016100040F04070E1EE100A70470000000000004A
:101620000000010203040607080900040800200066
:101630001000000400010002800000006016000895
:101640000000002030000000F8010008901600089B
:1016500030000020B0060000180200080000000062
:1016600001000000000002400004024000040240AB
:10167000000402400004024000000240000002405A
:101680000008024001000000100000000024F400E7
:040000050800019559
:00000001FF
